{
  "contractName": "Reservation",
  "abi": [
    {
      "constant": true,
      "inputs": [],
      "name": "clientsCount",
      "outputs": [
        {
          "name": "",
          "type": "uint256"
        }
      ],
      "payable": false,
      "stateMutability": "view",
      "type": "function"
    },
    {
      "constant": true,
      "inputs": [
        {
          "name": "",
          "type": "uint256"
        }
      ],
      "name": "clients",
      "outputs": [
        {
          "name": "id",
          "type": "uint256"
        },
        {
          "name": "nom",
          "type": "string"
        },
        {
          "name": "typeErreur",
          "type": "string"
        },
        {
          "name": "numTrajet",
          "type": "string"
        }
      ],
      "payable": false,
      "stateMutability": "view",
      "type": "function"
    },
    {
      "inputs": [],
      "payable": false,
      "stateMutability": "nonpayable",
      "type": "constructor"
    },
    {
      "anonymous": false,
      "inputs": [
        {
          "indexed": true,
          "name": "_clientId",
          "type": "uint256"
        }
      ],
      "name": "ajoutProblemEvent",
      "type": "event"
    },
    {
      "constant": false,
      "inputs": [
        {
          "name": "_clientName",
          "type": "string"
        },
        {
          "name": "_typeErreur",
          "type": "string"
        },
        {
          "name": "_numTrajet",
          "type": "string"
        }
      ],
      "name": "ajoutProblem",
      "outputs": [],
      "payable": false,
      "stateMutability": "nonpayable",
      "type": "function"
    }
  ],
  "bytecode": "0x608060405234801561001057600080fd5b506100ca6040805190810160405280600881526020017f436c656d737465720000000000000000000000000000000000000000000000008152506040805190810160405280600681526020017f52657461726400000000000000000000000000000000000000000000000000008152506040805190810160405280600881526020017f30424552344b494f000000000000000000000000000000000000000000000000815250610241640100000000026401000000009004565b6101836040805190810160405280600581526020017f53616d69780000000000000000000000000000000000000000000000000000008152506040805190810160405280600a81526020017f416e6e756c6174696f6e000000000000000000000000000000000000000000008152506040805190810160405280600881526020017f5455565758343932000000000000000000000000000000000000000000000000815250610241640100000000026401000000009004565b61023c6040805190810160405280600781526020017f43c3a964726963000000000000000000000000000000000000000000000000008152506040805190810160405280600581526020017f41757472650000000000000000000000000000000000000000000000000000008152506040805190810160405280600881526020017f494b36374131524a000000000000000000000000000000000000000000000000815250610241640100000000026401000000009004565b610399565b60016000815480929190600101919050555060806040519081016040528060015481526020018481526020018381526020018281525060008060015481526020019081526020016000206000820151816000015560208201518160010190805190602001906102b19291906102f4565b5060408201518160020190805190602001906102ce9291906102f4565b5060608201518160030190805190602001906102eb9291906102f4565b50905050505050565b828054600181600116156101000203166002900490600052602060002090601f016020900481019282601f1061033557805160ff1916838001178555610363565b82800160010185558215610363579182015b82811115610362578251825591602001919060010190610347565b5b5090506103709190610374565b5090565b61039691905b8082111561039257600081600090555060010161037a565b5090565b90565b6106b2806103a86000396000f300608060405260043610610057576000357c0100000000000000000000000000000000000000000000000000000000900463ffffffff16806365ed48ea1461005c578063bf6675a914610087578063f88af21d1461017c575b600080fd5b34801561006857600080fd5b50610071610301565b6040518082815260200191505060405180910390f35b34801561009357600080fd5b5061017a600480360381019080803590602001908201803590602001908080601f0160208091040260200160405190810160405280939291908181526020018383808284378201915050505050509192919290803590602001908201803590602001908080601f0160208091040260200160405190810160405280939291908181526020018383808284378201915050505050509192919290803590602001908201803590602001908080601f0160208091040260200160405190810160405280939291908181526020018383808284378201915050505050509192919290505050610307565b005b34801561018857600080fd5b506101a7600480360381019080803590602001909291905050506103e9565b60405180858152602001806020018060200180602001848103845287818151815260200191508051906020019080838360005b838110156101f55780820151818401526020810190506101da565b50505050905090810190601f1680156102225780820380516001836020036101000a031916815260200191505b50848103835286818151815260200191508051906020019080838360005b8381101561025b578082015181840152602081019050610240565b50505050905090810190601f1680156102885780820380516001836020036101000a031916815260200191505b50848103825285818151815260200191508051906020019080838360005b838110156102c15780820151818401526020810190506102a6565b50505050905090810190601f1680156102ee5780820380516001836020036101000a031916815260200191505b5097505050505050505060405180910390f35b60015481565b60016000815480929190600101919050555060806040519081016040528060015481526020018481526020018381526020018281525060008060015481526020019081526020016000206000820151816000015560208201518160010190805190602001906103779291906105e1565b5060408201518160020190805190602001906103949291906105e1565b5060608201518160030190805190602001906103b19291906105e1565b509050506001547fca6eb77ee7df60ff72bc688177f2241fb4e84d526869718a3384b6fa4e7e92ba60405160405180910390a2505050565b6000602052806000526040600020600091509050806000015490806001018054600181600116156101000203166002900480601f01602080910402602001604051908101604052809291908181526020018280546001816001161561010002031660029004801561049b5780601f106104705761010080835404028352916020019161049b565b820191906000526020600020905b81548152906001019060200180831161047e57829003601f168201915b505050505090806002018054600181600116156101000203166002900480601f0160208091040260200160405190810160405280929190818152602001828054600181600116156101000203166002900480156105395780601f1061050e57610100808354040283529160200191610539565b820191906000526020600020905b81548152906001019060200180831161051c57829003601f168201915b505050505090806003018054600181600116156101000203166002900480601f0160208091040260200160405190810160405280929190818152602001828054600181600116156101000203166002900480156105d75780601f106105ac576101008083540402835291602001916105d7565b820191906000526020600020905b8154815290600101906020018083116105ba57829003601f168201915b5050505050905084565b828054600181600116156101000203166002900490600052602060002090601f016020900481019282601f1061062257805160ff1916838001178555610650565b82800160010185558215610650579182015b8281111561064f578251825591602001919060010190610634565b5b50905061065d9190610661565b5090565b61068391905b8082111561067f576000816000905550600101610667565b5090565b905600a165627a7a72305820b6a5ef85ccd6761a1b3961336aff361cd7ce260420c3929137b7fdde08d84ef50029",
  "source": "// solium-disable linebreak-style\r\npragma solidity ^0.4.24;\r\n\r\ncontract Reservation {\r\n\r\n    struct Client {\r\n        uint id;\r\n        string nom;\r\n        string typeErreur;\r\n        string numTrajet;\r\n    }\r\n\r\n    mapping(uint => Client) public clients;\r\n\r\n    uint public clientsCount;\r\n\r\n    function addClient (string _clientName, string _typeErreur, string _numTrajet) private {\r\n        clientsCount ++;\r\n        clients[clientsCount] = Client(clientsCount, _clientName, _typeErreur, _numTrajet);\r\n    }\r\n\r\n    function ajoutProblem (string _clientName, string _typeErreur, string _numTrajet) public {\r\n        clientsCount ++;\r\n        clients[clientsCount] = Client(clientsCount, _clientName, _typeErreur, _numTrajet);\r\n        emit ajoutProblemEvent(clientsCount);\r\n    }\r\n\r\n    // Constructor\r\n    constructor() public {\r\n        addClient(\"Clemster\", \"Retard\", \"0BER4KIO\");\r\n        addClient(\"Samix\", \"Annulation\", \"TUVWX492\");\r\n        addClient(\"Cédric\", \"Autre\", \"IK67A1RJ\");\r\n    }\r\n\r\n    event ajoutProblemEvent (\r\n        uint indexed _clientId\r\n    );\r\n}",
  "sourcePath": "C:\\Users\\Samix-PC-Bureautique\\Desktop\\Cours\\Workshop\\test_js\\contracts\\Reservation.sol",
  "compiler": {
    "name": "solc",
    "version": "0.4.24+commit.e67f0147.Emscripten.clang"
  },
  "schemaVersion": "2.0.1",
  "updatedAt": "2018-11-08T12:06:43.862Z"
}